:020000040800F2
:10000000C0050020A9010008AD110008A9110008D1
:10001000AB110008DD0300087913000800000000A0
:10002000000000000000000000000000571200085F
:100030008104000800000000AF11000859120008F8
:10004000C3010008C3010008C3010008C301000880
:10005000C3010008C3010008C3010008C301000870
:10006000C3010008C3010008C3010008E103000840
:10007000C3010008C3010008C3010008C301000850
:10008000C3010008ED030008C301000800000000E0
:10009000000000000000000000000000C301000894
:1000A000C3010008C3010008C3010008C301000820
:1000B000C3010008C3010008C3010008C301000810
:1000C000C3010008C3010008C3010008C301000800
:1000D000C3010008C3010008C301000800000000BC
:1000E000C3010008C3010008C301000800000000AC
:1000F000000000000000000000000000C301000834
:1001000000000000C3010008C3010008C30100088B
:1001100000000000000000000000000000000000DF
:10012000F9030008C3010008C3010008C301000867
:10013000C3010008000000000000000000000000F3
:10014000000000000000000000000000C3010008E3
:10015000C3010008C3010008C3010008C30100086F
:10016000C3010008C30100080000000000000000F7
:10017000000000000000000000000000000000007F
:1001800000000000C30100080000000000000000A3
:10019000C3010008DFF80CD000F07AF800480047EF
:1001A000AB150008C00500200648804706480047F8
:1001B000FEE7FEE7FEE7FEE7FEE7FEE7FEE7FEE717
:1001C000FEE7FEE75D120008950100082DE9F05FEB
:1001D0000546002092469B468846064681464024B6
:1001E0001BE0284641464746224600F041F8534668
:1001F0005A46C01A914110D311461846224600F0C3
:1002000028F82D1A67EB01084F46224601200021ED
:1002100000F01FF817EB00094E41201EA4F1010465
:10022000DFDC484631462A464346BDE8F09FD2B25D
:1002300001E000F8012B491EFBD270470022F6E7CF
:1002400010B513460A4604461946FFF7F0FF20464C
:1002500010BD202A04DB203A00FA02F1002070478A
:100260009140C2F1200320FA03F3194390407047F4
:10027000202A04DB203A21FA02F00021704721FAFB
:1002800002F3D040C2F12002914008431946704762
:10029000064C074D06E0E06840F0010394E80700D3
:1002A00098471034AC42F6D3FFF778FFE815000802
:1002B00008160008464910B54A6822F440324A60E0
:1002C0004A6843681A434A6001684A6822F48072A7
:1002D0004A6001684A68036942EA03224A60016889
:1002E0004A6822F040724A6001684A6883681A438B
:1002F0004A6001688A6822F400628A6001688A683C
:10030000C3681A438A60816A6FF07062D1420168E3
:100310008A6822F070628A6001688A680CD0836AF9
:100320001A438A6001688A6822F040528A60016834
:100330008A68C36A1A4301E022F040528A60016869
:100340008A6822F002028A6001688A68037E42EAB3
:1003500043028A6090F82010002901684A680FD093
:1003600042F400624A6001684A6822F460424A60CE
:1003700001684A68174C436A04EB43331A4301E0AF
:1003800022F400624A600168CA6A22F47002CA62FA
:100390000168CA6A838B104C04EB03531A43CA6288
:1003A00001688A6822F400728A6001688A6890F89D
:1003B000303042EA43228A6001688A6822F480620F
:1003C0008A6001688A68406942EA8020886010BDBE
:1003D0000023014000E0FFFF0000F0FFFEE7000007
:1003E000014800F0E9B8000000010020014800F0D9
:1003F000E3B8000060010020014800F0DDB8000013
:10040000A000002001681823CAB2103AB2FBF3F230
:10041000054B6FF30901032A9B5CC36500D9091DD5
:100420008165084670470000C815000810B50146F0
:1004300000208B698A6A4FF0C07453B1B3F5005F36
:1004400015D072B1012A0CD0022A0AD0032A09D190
:1004500004E01AB1012A06D0022A03D1C96AC901EF
:1004600000D5012010BDC96AA142FAD010BD002AF2
:10047000F7D0012AF2D0022AF3D0032AF3D010BD1C
:1004800070470000104886B00024016841F0010167
:1004900001600068142100F0010005906846FFF734
:1004A000CDFE802000900120CDE901040394074C8B
:1004B0006946204600F0CCF98021204600F0B8FAC9
:1004C000962000F0B3F9F7E7303802400000024010
:1004D00070B504004FF0000503D0206C002610B169
:1004E00007E0012070BD204600F01CF8666484F827
:1004F0003C60206CC00610D4206C20F4885040F082
:10050000020020642046FFF7D5FE6664206C20F0D0
:10051000020040F00100206400E0012584F83C6006
:10052000284670BD70B586B0064614216846FFF7B0
:1005300085FE1C493068884232D11B48002501687D
:1005400041F480710160006800F4807005901648E5
:100550001438016841F0010101600068694600F04B
:100560000100059003200090CDE901050F4800F03F
:100570006FF9104C0E48C4E900050015A560C4E9E8
:100580000350400060618000C4E9060525622046F2
:10059000656200F0E1F808B1FFF774FFB463A66389
:1005A00006B070BD00200140443802400000024007
:1005B00010640240A00000202DE9F84304464FF0EB
:1005C0000009CDF8009063484FF41651A56D0068FE
:1005D000B0FBF1F72E6894F85C10082000FA01F1E6
:1005E00031420FD021680A6852070BD50A6822F001
:1005F00004020A6094F85C108840A860606D40F0C6
:100600000100606594F85C104FF0010808FA01F0F1
:10061000304208D021684969090604D5A860606D98
:1006200040F00200606594F85C100420884030427D
:1006300008D021680968890704D5A860606D40F07A
:100640000400606594F85C1010208840304218D097
:1006500021680968090714D5A86020680168490362
:1006600004D50068000308D5A16C07E00168C9053E
:1006700003D4016821F008010160216C09B1204612
:10068000884794F85C1020208840304231D021689F
:100690000968C9062DD5A86094F83500052820689A
:1006A000016806D0490347D5006800031DD4616C7A
:1006B0001CE021F0160101602068416921F08001F1
:1006C0004161206C08B9A06C20B12068016821F05C
:1006D0000801016094F85C103F208840A86084F80D
:1006E000358084F83490216D1FE0E16B09B120461C
:1006F0008847606D00282BD0606DC00714D005209E
:1007000084F835002068016821F00101016000983B
:10071000401C0090B84203D820680068C007F6D19A
:1007200084F8358084F83490E16C002910D001B051
:100730002046BDE8F04308470168C905D5D40168E3
:1007400021F01001016084F8358084F83490CCE702
:10075000BDE8F8830C0000202DE9F041044600F0CC
:1007600075F906465CB1022084F83500002584F84E
:1007700034502068016821F0010101600DE0012082
:10078000BDE8F08100F062F9801B052805D9202022
:100790006065032084F83500F2E720680068C00730
:1007A000F0D12268116820480140D4E901031843C0
:1007B000D4E903363343184363691843A3691843E4
:1007C000E3691843236A18430843616A042903D183
:1007D000D4E90B1319430843106020684069666A26
:1007E00020F0070130460E43012704280CD1A06AEF
:1007F0000643E06A40B12046FFF718FE20B14020D2
:10080000606584F83570BAE7206846612046FFF7D6
:10081000F9FD94F85C203F2191408160656584F882
:1008200035700020ACE700003F8010F070B5044642
:1008300000F00CF90546601C02D00448007804441E
:1008400000F004F9401BA042FAD370BD0000002064
:100850002DE9F84FDFF8B8A10022012403254FF05D
:100860000F090AF1040BAAF1040E00BF0B6804FA89
:1008700002F63340B34273D10F7907F00307012F1B
:1008800001D0022F16D187684FEA420805FA08FC0A
:1008900027EA0C07D1F80CC00CFA08FC4CEA070C4C
:1008A000C0F808C04768B7430E79C6F300169640F3
:1008B0003E4346600E79F643B6070DD0C768560032
:1008C00005FA06FC27EA0C07D1F808C00CFA06FC6A
:1008D0004CEA070CC0F80CC00E7906F00306022E95
:1008E00010D1D60800EB8608D8F8206057074FEAE9
:1008F000D76C09FA0CF7BE430F6907FA0CF73743B8
:10090000C8F8207006684FEA420C05FA0CF7BE439F
:100910000F7907F0030707FA0CF7374307604E68B3
:1009200016F4403F6DD03B4E376847F48047376040
:10093000366822F0030706F480460096364E07EB31
:10094000060CDCF8086897073F0F09FA07F826EA53
:100950000806DFF8C880404503D14FF000081EE0CC
:100960004FE0DFF8BC80404502D14FF0010816E0AF
:10097000DFF8B080404502D14FF002080FE0DFF809
:10098000A880404502D14FF0030808E0DFF89C80C2
:10099000404502D14FF0040801E04FF0070808FA83
:1009A00007F848EA0608CCF80888DAF800605746E5
:1009B000D1F804C09E435FEACC2C00D51E433E60B4
:1009C000DBF800605F46D1F804C09E435FEA8C2CE0
:1009D00000D51E433E60DEF800607746D1F804C0C3
:1009E0009E435FEA8C3C00D51E433E60084F083FA3
:1009F0003E68D1F804C09E435FEACC3C00D51E435C
:100A00003E60521C102AFFF431AFBDE8F88F0000A1
:100A1000083C0140443802400030014000000240E0
:100A20000004024000080240000C02400010024096
:100A3000426921EA02030A4043EA024181617047A8
:100A40000AB1816170470904FBE700000148806832
:100A500070470000000000200248816802781144BD
:100A600081607047000000200B4810B5016841F418
:100A700000710160016841F480610160016841F426
:100A800080710160032000F061F80F2000F006F88B
:100A900000F024F8002010BD003C024070B50D4D60
:100AA00004464FF47A712878B1FBF0F00A490968DE
:100AB000B1FBF0F000F0FEFA48B9102C07D200228A
:100AC0002146501E00F022F800206C6070BD01200D
:100AD00070BD0000000000200C0000200A4808B58E
:100AE000016841F480410160006800F4804000909A
:100AF0000548001F016841F080510160006800F066
:100B00008050009008BD000044380240F0B40E4B05
:100B10001B680C46C3F30223C3F10705042D00D95B
:100B20000425191D072901D2002300E0DB1E012640
:100B300006FA05F1491E214099409E40761E164056
:100B40003143F0BC00F012BD0CED00E0064900F0AE
:100B5000070208684FF6FF03184040EA0220034AE4
:100B600010430860704700000CED00E00000FA053B
:100B70002DE9F0470E46050065D0DFF81481D8F85E
:100B80000000F7B200F00700B04207D288F800700A
:100B9000D8F8000000F00700B04254D128683D4C5E
:100BA000810712D5400703D5206840F4E05020604B
:100BB0002878000703D5206840F460402060206852
:100BC000A96820F0F000084320602878C0072DD0E5
:100BD000304968680839012812D0022813D0032848
:100BE00011D00968890700292DDA216821F0030155
:100BF00001432160FFF72AFF814641F2883A0EE067
:100C000009688903EFE709688901ECE7FFF71EFF30
:100C1000A0EB0901514502D90320BDE8F087206807
:100C2000696800F00C00B0EB810FEFD1D8F800102C
:100C3000404601F00701B14207D90770006800F093
:100C40000700B04201D00120E7E72878400705D52A
:100C50002068E96820F4E050084320602878000705
:100C600006D52068296920F4604040EAC100206070
:100C700000F038F82168084AC1F30311515CC840FC
:100C80000649086006480068FFF708FF0020C4E72F
:100C9000003C024008380240D01500080C0000203B
:100CA000040000200448054900680968044AC1F3AB
:100CB0008221515CC84070470C0000200838024077
:100CC000E01500080448054900680968044AC1F3B2
:100CD0004231515CC84070470C0000200838024087
:100CE000E0150008154810B5006810F00C02144813
:100CF00013D01449042A0FD0082A0ED10F4C241FF8
:100D00002268236802F03F025B0207D52068C0F327
:100D10008810A0FB010106E0084610BD2168C1F360
:100D20008811A1FB00010023FFF750FA2168C1F3ED
:100D30000141491C4900B0FBF1F010BD08380240E8
:100D40000024F40040787D012DE9F84F04006ED0B6
:100D50002078DFF84C93C007A9F104054AD009F1C7
:100D600004000168C1F38101012908D00068C0F3C3
:100D7000810002280AD1D9F80000400206D528686F
:100D8000800337D560680028E1D033E06068B0F5B3
:100D9000803F10D0B0F5A02F286810D020F480300C
:100DA0002860286820F4802028606068A8B1FFF7D8
:100DB0004DFE06460DE0286840F48030F4E740F42C
:100DC00080202860F7E700BFFFF740FE801B642803
:100DD00073D828688003F7D50CE0FFF737FE064686
:100DE00005E000BFFFF732FE801B6428F0D82868BA
:100DF0008003F7D42078DFF8AC8280074FF0000A38
:100E00003ED5A748001D016811F00C0F08D00068FE
:100E1000C0F3810002280BD1D9F80000400207D4AA
:100E20002868800716D5E068012800D112E033E178
:100E3000E068B8B10120C8F80000FFF707FE0646D9
:100E400005E000BFFFF702FE801B0228C0D828681B
:100E50008007F7D52868216920F0F80040EAC10032
:100E600028600DE0C8F800A0FFF7F0FD064604E09A
:100E7000FFF7ECFD801B02281FD828688007F7D4F5
:100E80002078000722D5864F87486169703771B195
:100E900001210160FFF7DAFD064604E0FFF7D6FD09
:100EA000801B022809D838688007F7D50EE0C0F803
:100EB00000A0FFF7CBFD064605E082E0FFF7C6FD88
:100EC000801B02287DD838688007F7D42078400737
:100ED00068D5DFF8CCB100270BF13C0BDBF8000044
:100EE000C0000BD4DBF8001041F08051CBF80010AB
:100EF000DBF80000012700F0805000906B4E306856
:100F0000C00510D4306840F480703060FFF79EFD5B
:100F1000009005E0FFF79AFD0099401A022850D88A
:100F20003068C005F6D55E4EA0686C3601280FD03B
:100F30000528306810D020F001003060306820F0C3
:100F400004003060A068B8B1FFF780FD00900FE0AA
:100F5000306840F00100F4E740F004003060F7E74B
:100F6000FFF774FD0099411A41F28830814266D83A
:100F700030688007F4D50EE0FFF768FD009007E0C9
:100F8000FFF764FD0099411A41F28830814256D83A
:100F900030688007F4D42FB1DBF8001021F08051C5
:100FA000CBF80010A069C8B33D49091D0968C1F319
:100FB000810102294AD00228504607D0C8F86000B3
:100FC00000E03CE0FFF742FD04463BE04746C8F83E
:100FD0006000FFF73BFD064605E000BFFFF736FD6A
:100FE000801B02282BD828688001F7D4D4E9070198
:100FF0000843A16A2E4A490802EB0141626A41EAAC
:101000008211084394F82C1040EA0161C9F80010DD
:1010100001203866FFF71AFD044606E03EE000BFF7
:10102000FFF714FD001B022809D828688001F7D5B6
:1010300034E000BFFFF70AFD001B022802D903209D
:10104000BDE8F88F28688001F4D427E00128F7D0A4
:10105000D9F80000E26900F4800191421CD1226AB3
:1010600000F03F01914217D147F6C071626A01401A
:10107000B1EB821F10D1A26A4FF0FF3300F4403170
:1010800003EB5202B1EB024F06D194F82C1000F0A2
:101090007060B0EB016F01D00120D1E70020CFE7F5
:1010A0000438024000004742800E47420070004072
:1010B0000000FFFF10B5401EB0F1807F01D301207A
:1010C00010BD4FF0E02460610F21601700F04EFA70
:1010D0000020A06107202061002010BD70B5040031
:1010E00004D094F84100002510B106E0012070BD45
:1010F00084F84050204600F023F8242084F8410072
:101100002068C16821F40051C160204600F0AEF8AB
:101110002068016921F4904101612068416921F052
:101120002A0141612068C16841F40051C1606564D1
:10113000202084F8410084F842006563002070BDDF
:1011400010B586B0044614216846FFF777F81349B6
:101150002068884220D112480021026842F40032FF
:101160000260006800F4003005900D4810380268F5
:1011700042F001020260006800F0010005900C20BE
:1011800000900220CDE90101032003900720049084
:1011900069460448FFF75CFB06B010BD0044004000
:1011A0004038024000000240FEE7FEE7FEE77047DD
:1011B00030B587B014216846FFF740F81248002484
:1011C000016841F001010160016801F00101059130
:1011D000016841F0020101600068012500F0020091
:1011E0000590E0200090CDE901546946074803943A
:1011F000FFF72EFB0095CDE901546946044803949E
:10120000FFF726FB07B030BD303802400000024037
:1012100000040240FFF7CCFF0C4C012220212046A5
:10122000FFF70EFC012240212046FFF709FC0122B6
:1012300011460748FFF704FC4FF4FA758021204659
:10124000FFF7F6FB2846FFF7F1FAF7E70000024048
:101250000004024070477047FFF7FEBB0248016878
:1012600041F470010160704788ED00E070B50446FC
:1012700000680169E26821F440511143016121696C
:10128000A068E26908436169114308432168CA689C
:1012900049F20C639A430243CA6020684169A2691B
:1012A00021F440711143416131492068884202D0E4
:1012B0003049884202D1FFF705FD01E0FFF7F2FC5B
:1012C000E2690023192164253226B2F5004F6268D5
:1012D00028D0A0FB0101930F9200FEF777FF014693
:1012E000B0FBF5F06FF01802504301EB800006EB05
:1012F0000010B0FBF5F000F0F002B1FBF5F002EBEE
:101300000012B1FBF5F06FF01803584301EB8000B9
:1013100006EB0010B0FBF5F000F00F002168104460
:10132000886070BDA0FB010192185B41FEF74EFF83
:101330000146B0FBF5F00201B1FBF5F06FF01803C8
:10134000584301EB800006EBC000B0FBF5F000F065
:10135000F80002EB4002B1FBF5F0584301EB8000CE
:1013600006EBC000B0FBF5F000F00700D6E7000088
:101370000010014000140140FEE70000124808B5CB
:101380000268002142F48072026000680F4A00F493
:10139000807000900E4802604FF48032C0E9012155
:1013A0000161017680F820100A4AC0E90A21012271
:1013B000C261C16080F830104261FFF789F80028EF
:1013C00001D0FFF75FF808BD44380240002001401B
:1013D000100000200100000FF0B587B0142168460E
:1013E000FEF72CFF28480024016841F0010101604C
:1013F000016801F001010591016841F002010160FD
:101400000068032600F00200009605901F4FCDE90A
:10141000016469463846FFF71BFA0C20009001A9C9
:101420000220012581E861000720049069463846C2
:10143000FFF70EFAC020009001A9122081E8610098
:101440000420134E049069463046FFF701FAE0206D
:101450000090CDE90154694638460394FFF7F8F946
:101460000095CDE90154694630460394FFF7F0F941
:101470000022E0213846FFF7E3FA0022012130463E
:10148000FFF7DEFA07B0F0BD30380240000002403E
:101490000004024030B593B030216846FEF7CEFE1E
:1014A00014210CA8FEF7CAFE1B480024016841F075
:1014B00080510160006800F0805011901748016869
:1014C00041F4404101600068022500F44040119061
:1014D000012003901020009506950490CDE9074067
:1014E0004FF4A870099004200A9007200B906846DA
:1014F000FFF72AFC60B90F20CDE90C05E802CDE921
:101500000E4002210CA81094FFF732FB002801D0F6
:10151000FEF7B8FF13B030BD403802400070004005
:101520000F4808B50268002142F4003202600068EA
:101530000C4A00F4003000900B4802604FF4E13296
:10154000C0E901210C22C160C0E904128161C161BE
:10155000FFF7C4FD002801D0FEF794FF08BD00008E
:101560004038024000440040580000200907090E9E
:10157000002804DB00F1E02080F80014704700F040
:101580000F0000F1E02080F8141D704702E008C849
:10159000121F08C1002AFAD170477047002001E0ED
:1015A00001C1121F002AFBD17047FFF75DFAFFF758
:1015B00071FFFFF711FFFFF7E1FEFFF7B1FFFFF744
:1015C00029FEFFF747FEFCE700061016000610167E
:1015D00000000000000000000102030406070809E3
:1015E00000000000010203040816000800000020AB
:1015F000100000008C1500081816000810000020CC
:10160000B00500009C15000801000000100000005B
:08161000000000000024F400BA
:040000050800019559
:00000001FF
